{
  "contractName": "CrowdFunding",
  "abi": [
    {
      "inputs": [
        {
          "internalType": "string",
          "name": "contractName",
          "type": "string"
        },
        {
          "internalType": "uint256",
          "name": "targetAmountEth",
          "type": "uint256"
        },
        {
          "internalType": "uint256",
          "name": "durationInMin",
          "type": "uint256"
        },
        {
          "internalType": "address payable",
          "name": "beneficiaryAddress",
          "type": "address"
        }
      ],
      "payable": false,
      "stateMutability": "nonpayable",
      "type": "constructor"
    },
    {
      "constant": true,
      "inputs": [
        {
          "internalType": "address",
          "name": "",
          "type": "address"
        }
      ],
      "name": "amounts",
      "outputs": [
        {
          "internalType": "uint256",
          "name": "",
          "type": "uint256"
        }
      ],
      "payable": false,
      "stateMutability": "view",
      "type": "function"
    },
    {
      "constant": true,
      "inputs": [],
      "name": "beneficiary",
      "outputs": [
        {
          "internalType": "address payable",
          "name": "",
          "type": "address"
        }
      ],
      "payable": false,
      "stateMutability": "view",
      "type": "function"
    },
    {
      "constant": true,
      "inputs": [],
      "name": "collected",
      "outputs": [
        {
          "internalType": "bool",
          "name": "",
          "type": "bool"
        }
      ],
      "payable": false,
      "stateMutability": "view",
      "type": "function"
    },
    {
      "constant": true,
      "inputs": [],
      "name": "deadline",
      "outputs": [
        {
          "internalType": "uint256",
          "name": "",
          "type": "uint256"
        }
      ],
      "payable": false,
      "stateMutability": "view",
      "type": "function"
    },
    {
      "constant": true,
      "inputs": [],
      "name": "name",
      "outputs": [
        {
          "internalType": "string",
          "name": "",
          "type": "string"
        }
      ],
      "payable": false,
      "stateMutability": "view",
      "type": "function"
    },
    {
      "constant": true,
      "inputs": [],
      "name": "owner",
      "outputs": [
        {
          "internalType": "address",
          "name": "",
          "type": "address"
        }
      ],
      "payable": false,
      "stateMutability": "view",
      "type": "function"
    },
    {
      "constant": true,
      "inputs": [],
      "name": "state",
      "outputs": [
        {
          "internalType": "enum CrowdFunding.State",
          "name": "",
          "type": "uint8"
        }
      ],
      "payable": false,
      "stateMutability": "view",
      "type": "function"
    },
    {
      "constant": true,
      "inputs": [],
      "name": "targetAmount",
      "outputs": [
        {
          "internalType": "uint256",
          "name": "",
          "type": "uint256"
        }
      ],
      "payable": false,
      "stateMutability": "view",
      "type": "function"
    },
    {
      "constant": true,
      "inputs": [],
      "name": "totalCollected",
      "outputs": [
        {
          "internalType": "uint256",
          "name": "",
          "type": "uint256"
        }
      ],
      "payable": false,
      "stateMutability": "view",
      "type": "function"
    },
    {
      "constant": false,
      "inputs": [],
      "name": "contribute",
      "outputs": [],
      "payable": true,
      "stateMutability": "payable",
      "type": "function"
    },
    {
      "constant": false,
      "inputs": [],
      "name": "collect",
      "outputs": [],
      "payable": false,
      "stateMutability": "nonpayable",
      "type": "function"
    },
    {
      "constant": false,
      "inputs": [],
      "name": "withdraw",
      "outputs": [],
      "payable": false,
      "stateMutability": "nonpayable",
      "type": "function"
    },
    {
      "constant": true,
      "inputs": [],
      "name": "beforeDeadline",
      "outputs": [
        {
          "internalType": "bool",
          "name": "",
          "type": "bool"
        }
      ],
      "payable": false,
      "stateMutability": "view",
      "type": "function"
    }
  ],
  "bytecode": "0x60806040523480156200001157600080fd5b5060405162000e9038038062000e90833981810160405260808110156200003757600080fd5b81019080805160405193929190846401000000008211156200005857600080fd5b838201915060208201858111156200006f57600080fd5b82518660018202830111640100000000821117156200008d57600080fd5b8083526020830192505050908051906020019080838360005b83811015620000c3578082015181840152602081019050620000a6565b50505050905090810190601f168015620000f15780820380516001836020036101000a031916815260200191505b5060405260200180519060200190929190805190602001909291908051906020019092919050505083600090805190602001906200013192919062000322565b5073__Utils_________________________________63d8916bb9846040518263ffffffff1660e01b81526004018082815260200191505060206040518083038186803b1580156200018257600080fd5b505af415801562000197573d6000803e3d6000fd5b505050506040513d6020811015620001ae57600080fd5b810190808051906020019092919050505060018190555073__Utils_________________________________63f0f316d3836040518263ffffffff1660e01b81526004018082815260200191505060206040518083038186803b1580156200021557600080fd5b505af41580156200022a573d6000803e3d6000fd5b505050506040513d60208110156200024157600080fd5b8101908080519060200190929190505050620002626200031a60201b60201c565b0160028190555080600360006101000a81548173ffffffffffffffffffffffffffffffffffffffff021916908373ffffffffffffffffffffffffffffffffffffffff16021790555033600460006101000a81548173ffffffffffffffffffffffffffffffffffffffff021916908373ffffffffffffffffffffffffffffffffffffffff1602179055506000600760016101000a81548160ff021916908360038111156200030b57fe5b021790555050505050620003d1565b600042905090565b828054600181600116156101000203166002900490600052602060002090601f016020900481019282601f106200036557805160ff191683800117855562000396565b8280016001018555821562000396579182015b828111156200039557825182559160200191906001019062000378565b5b509050620003a59190620003a9565b5090565b620003ce91905b80821115620003ca576000816000905550600101620003b0565b5090565b90565b610aaf80620003e16000396000f3fe6080604052600436106100c25760003560e01c806384bcefd41161007f578063c19d93fb11610059578063c19d93fb14610335578063d7bb99ba1461036e578063e29eb83614610378578063e5225381146103a3576100c2565b806384bcefd4146102845780638da5cb5b146102b3578063953b8fb81461030a576100c2565b806306fdde03146100c757806329dcb0cf1461015757806338af3eed146101825780633ccfd60b146101d957806355a3b2c1146101f057806368bc004114610255575b600080fd5b3480156100d357600080fd5b506100dc6103ba565b6040518080602001828103825283818151815260200191508051906020019080838360005b8381101561011c578082015181840152602081019050610101565b50505050905090810190601f1680156101495780820380516001836020036101000a031916815260200191505b509250505060405180910390f35b34801561016357600080fd5b5061016c610458565b6040518082815260200191505060405180910390f35b34801561018e57600080fd5b5061019761045e565b604051808273ffffffffffffffffffffffffffffffffffffffff1673ffffffffffffffffffffffffffffffffffffffff16815260200191505060405180910390f35b3480156101e557600080fd5b506101ee610484565b005b3480156101fc57600080fd5b5061023f6004803603602081101561021357600080fd5b81019080803573ffffffffffffffffffffffffffffffffffffffff169060200190929190505050610702565b6040518082815260200191505060405180910390f35b34801561026157600080fd5b5061026a61071a565b604051808215151515815260200191505060405180910390f35b34801561029057600080fd5b5061029961072d565b604051808215151515815260200191505060405180910390f35b3480156102bf57600080fd5b506102c8610740565b604051808273ffffffffffffffffffffffffffffffffffffffff1673ffffffffffffffffffffffffffffffffffffffff16815260200191505060405180910390f35b34801561031657600080fd5b5061031f610766565b6040518082815260200191505060405180910390f35b34801561034157600080fd5b5061034a61076c565b6040518082600381111561035a57fe5b60ff16815260200191505060405180910390f35b61037661077f565b005b34801561038457600080fd5b5061038d6108ff565b6040518082815260200191505060405180910390f35b3480156103af57600080fd5b506103b8610905565b005b60008054600181600116156101000203166002900480601f0160208091040260200160405190810160405280929190818152602001828054600181600116156101000203166002900480156104505780601f1061042557610100808354040283529160200191610450565b820191906000526020600020905b81548152906001019060200180831161043357829003601f168201915b505050505081565b60025481565b600360009054906101000a900473ffffffffffffffffffffffffffffffffffffffff1681565b600180600381111561049257fe5b600760019054906101000a900460ff1660038111156104ad57fe5b14610520576040517f08c379a000000000000000000000000000000000000000000000000000000000815260040180806020018281038252600d8152602001807f496e76616c69642053746174650000000000000000000000000000000000000081525060200191505060405180910390fd5b6000600660003373ffffffffffffffffffffffffffffffffffffffff1673ffffffffffffffffffffffffffffffffffffffff16815260200190815260200160002054116105d5576040517f08c379a00000000000000000000000000000000000000000000000000000000081526004018080602001828103825260178152602001807f4e6f7468696e672077617320436f6e747269627574656400000000000000000081525060200191505060405180910390fd5b6000600660003373ffffffffffffffffffffffffffffffffffffffff1673ffffffffffffffffffffffffffffffffffffffff1681526020019081526020016000205490506000600660003373ffffffffffffffffffffffffffffffffffffffff1673ffffffffffffffffffffffffffffffffffffffff16815260200190815260200160002081905550600360009054906101000a900473ffffffffffffffffffffffffffffffffffffffff1673ffffffffffffffffffffffffffffffffffffffff166108fc829081150290604051600060405180830381858888f193505050506106fe5780600660003373ffffffffffffffffffffffffffffffffffffffff1673ffffffffffffffffffffffffffffffffffffffff168152602001908152602001600020819055505b5050565b60066020528060005260406000206000915090505481565b6000600254610727610a50565b10905090565b600760009054906101000a900460ff1681565b600460009054906101000a900473ffffffffffffffffffffffffffffffffffffffff1681565b60015481565b600760019054906101000a900460ff1681565b600080600381111561078d57fe5b600760019054906101000a900460ff1660038111156107a857fe5b1461081b576040517f08c379a000000000000000000000000000000000000000000000000000000000815260040180806020018281038252600d8152602001807f496e76616c69642053746174650000000000000000000000000000000000000081525060200191505060405180910390fd5b61082361071a565b610878576040517f08c379a0000000000000000000000000000000000000000000000000000000008152600401808060200182810382526022815260200180610a596022913960400191505060405180910390fd5b34600660003373ffffffffffffffffffffffffffffffffffffffff1673ffffffffffffffffffffffffffffffffffffffff1681526020019081526020016000206000828254019250508190555034600560008282540192505081905550600154600554106108fc576001600760006101000a81548160ff0219169083151502179055505b50565b60055481565b600280600381111561091357fe5b600760019054906101000a900460ff16600381111561092e57fe5b146109a1576040517f08c379a000000000000000000000000000000000000000000000000000000000815260040180806020018281038252600d8152602001807f496e76616c69642053746174650000000000000000000000000000000000000081525060200191505060405180910390fd5b600360009054906101000a900473ffffffffffffffffffffffffffffffffffffffff1673ffffffffffffffffffffffffffffffffffffffff166108fc6005549081150290604051600060405180830381858888f1935050505015610a28576003600760016101000a81548160ff02191690836003811115610a1e57fe5b0217905550610a4d565b6001600760016101000a81548160ff02191690836003811115610a4757fe5b02179055505b50565b60004290509056fe446561646c696e65207061737365642e2043616e6e6f7420636f6e74726962757465a265627a7a72315820010a34d75dddef5833799f35c923b8ff20060d1a6f6b1de2fdf7a6e8cab06fdb64736f6c63430005100032",
  "source": "// SPDX-License-Identifier: MIT\npragma solidity >=0.4.22 <0.9.0;\n\nimport \"./Utils.sol\"; \n\ncontract CrowdFunding {\n    using Utils for *;\n\n    enum State { Ongoing, Failed, Succeeded, PaidOut }\n\n    string public name;\n    uint public targetAmount;\n    uint public deadline;\n    address payable public beneficiary;\n    address public owner;\n    uint public totalCollected;\n    mapping(address => uint) public amounts;\n    bool public collected; \n    State public state;\n\n    modifier inState(State expectedState) {\n        require(state == expectedState, \"Invalid State\");\n        _;\n    }\n\n    constructor(\n        string memory contractName,\n        uint targetAmountEth,\n        uint durationInMin,\n        address payable beneficiaryAddress\n    ) public\n    {\n        name = contractName;\n        targetAmount = Utils.etherToWei(targetAmountEth);\n        deadline = currentTime() + Utils.minsToSecs(durationInMin);\n        beneficiary = beneficiaryAddress;\n        owner = msg.sender;\n        state = State.Ongoing;\n    }\n\n\n    function contribute() public payable inState(State.Ongoing){\n        require(beforeDeadline(), \"Deadline passed. Cannot contribute\");\n        amounts[msg.sender] += msg.value;\n        totalCollected += msg.value;\n\n        if (totalCollected >= targetAmount) {\n            collected = true;\n        }\n    }\n\n    function collect() public inState(State.Succeeded) {\n        if (beneficiary.send(totalCollected)) {\n            state = State.PaidOut;\n        } else {\n            state = State.Failed;\n        }\n    }\n\n    function withdraw() public inState(State.Failed) {\n        require (amounts[msg.sender] > 0, \"Nothing was Contributed\");\n        uint contributed = amounts[msg.sender];\n        amounts[msg.sender] = 0;\n\n        if (!beneficiary.send(contributed)) {\n            amounts[msg.sender] = contributed;\n        }\n    }\n\n    function beforeDeadline() public view returns(bool) {\n        return currentTime() < deadline;\n    }\n\n    function currentTime() internal view returns(uint) {\n        return block.timestamp;\n    }\n\n\n}",
  "sourcePath": "/Users/administrator/Documents/Ethereum/CrowdFunding-Dapp/Crowdfunding-Eth-Dapp/Dapp/contracts/CrowdFunding.sol",
  "compiler": {
    "name": "solc",
    "version": "0.5.16+commit.9c3226ce.Emscripten.clang"
  },
  "schemaVersion": "3.4.3",
  "updatedAt": "2021-08-15T22:07:34.112Z",
  "networkType": "ethereum",
  "devdoc": {
    "methods": {}
  },
  "userdoc": {
    "methods": {}
  }
}