{
  "contractName": "TestCrowdFunding",
  "abi": [
    {
      "inputs": [
        {
          "internalType": "string",
          "name": "contractName",
          "type": "string"
        },
        {
          "internalType": "uint256",
          "name": "targetAmount",
          "type": "uint256"
        },
        {
          "internalType": "uint256",
          "name": "durationInMin",
          "type": "uint256"
        },
        {
          "internalType": "address payable",
          "name": "beneficiaryAddress",
          "type": "address"
        }
      ],
      "payable": false,
      "stateMutability": "nonpayable",
      "type": "constructor"
    },
    {
      "anonymous": false,
      "inputs": [
        {
          "indexed": false,
          "internalType": "address",
          "name": "addr",
          "type": "address"
        },
        {
          "indexed": false,
          "internalType": "uint256",
          "name": "totalCollected",
          "type": "uint256"
        },
        {
          "indexed": false,
          "internalType": "bool",
          "name": "succeeded",
          "type": "bool"
        }
      ],
      "name": "CampaignFinished",
      "type": "event"
    },
    {
      "constant": true,
      "inputs": [],
      "name": "accountName",
      "outputs": [
        {
          "internalType": "string",
          "name": "",
          "type": "string"
        }
      ],
      "payable": false,
      "stateMutability": "view",
      "type": "function"
    },
    {
      "constant": true,
      "inputs": [
        {
          "internalType": "address",
          "name": "",
          "type": "address"
        }
      ],
      "name": "amounts",
      "outputs": [
        {
          "internalType": "uint256",
          "name": "",
          "type": "uint256"
        }
      ],
      "payable": false,
      "stateMutability": "view",
      "type": "function"
    },
    {
      "constant": true,
      "inputs": [],
      "name": "beforeDeadline",
      "outputs": [
        {
          "internalType": "bool",
          "name": "",
          "type": "bool"
        }
      ],
      "payable": false,
      "stateMutability": "view",
      "type": "function"
    },
    {
      "constant": true,
      "inputs": [],
      "name": "beneficiary",
      "outputs": [
        {
          "internalType": "address payable",
          "name": "",
          "type": "address"
        }
      ],
      "payable": false,
      "stateMutability": "view",
      "type": "function"
    },
    {
      "constant": false,
      "inputs": [],
      "name": "collect",
      "outputs": [],
      "payable": false,
      "stateMutability": "nonpayable",
      "type": "function"
    },
    {
      "constant": true,
      "inputs": [],
      "name": "collected",
      "outputs": [
        {
          "internalType": "bool",
          "name": "",
          "type": "bool"
        }
      ],
      "payable": false,
      "stateMutability": "view",
      "type": "function"
    },
    {
      "constant": false,
      "inputs": [],
      "name": "contribute",
      "outputs": [],
      "payable": true,
      "stateMutability": "payable",
      "type": "function"
    },
    {
      "constant": true,
      "inputs": [],
      "name": "deadline",
      "outputs": [
        {
          "internalType": "uint256",
          "name": "",
          "type": "uint256"
        }
      ],
      "payable": false,
      "stateMutability": "view",
      "type": "function"
    },
    {
      "constant": false,
      "inputs": [],
      "name": "finishCrowdFunding",
      "outputs": [],
      "payable": false,
      "stateMutability": "nonpayable",
      "type": "function"
    },
    {
      "constant": true,
      "inputs": [],
      "name": "getTotalCollected",
      "outputs": [
        {
          "internalType": "uint256",
          "name": "",
          "type": "uint256"
        }
      ],
      "payable": false,
      "stateMutability": "view",
      "type": "function"
    },
    {
      "constant": true,
      "inputs": [],
      "name": "inProgress",
      "outputs": [
        {
          "internalType": "bool",
          "name": "",
          "type": "bool"
        }
      ],
      "payable": false,
      "stateMutability": "view",
      "type": "function"
    },
    {
      "constant": true,
      "inputs": [],
      "name": "isSuccessful",
      "outputs": [
        {
          "internalType": "bool",
          "name": "",
          "type": "bool"
        }
      ],
      "payable": false,
      "stateMutability": "view",
      "type": "function"
    },
    {
      "constant": true,
      "inputs": [],
      "name": "owner",
      "outputs": [
        {
          "internalType": "address",
          "name": "",
          "type": "address"
        }
      ],
      "payable": false,
      "stateMutability": "view",
      "type": "function"
    },
    {
      "constant": true,
      "inputs": [],
      "name": "state",
      "outputs": [
        {
          "internalType": "enum CrowdFunding.State",
          "name": "",
          "type": "uint8"
        }
      ],
      "payable": false,
      "stateMutability": "view",
      "type": "function"
    },
    {
      "constant": true,
      "inputs": [],
      "name": "targetAmount",
      "outputs": [
        {
          "internalType": "uint256",
          "name": "",
          "type": "uint256"
        }
      ],
      "payable": false,
      "stateMutability": "view",
      "type": "function"
    },
    {
      "constant": true,
      "inputs": [],
      "name": "totalCollected",
      "outputs": [
        {
          "internalType": "uint256",
          "name": "",
          "type": "uint256"
        }
      ],
      "payable": false,
      "stateMutability": "view",
      "type": "function"
    },
    {
      "constant": false,
      "inputs": [],
      "name": "withdraw",
      "outputs": [],
      "payable": false,
      "stateMutability": "nonpayable",
      "type": "function"
    },
    {
      "constant": false,
      "inputs": [
        {
          "internalType": "uint256",
          "name": "newTime",
          "type": "uint256"
        }
      ],
      "name": "setCurrentTime",
      "outputs": [],
      "payable": false,
      "stateMutability": "nonpayable",
      "type": "function"
    }
  ],
  "bytecode": "0x60806040523480156200001157600080fd5b506040516200127538038062001275833981810160405260808110156200003757600080fd5b81019080805160405193929190846401000000008211156200005857600080fd5b838201915060208201858111156200006f57600080fd5b82518660018202830111640100000000821117156200008d57600080fd5b8083526020830192505050908051906020019080838360005b83811015620000c3578082015181840152602081019050620000a6565b50505050905090810190601f168015620000f15780820380516001836020036101000a031916815260200191505b50604052602001805190602001909291908051906020019092919080519060200190929190505050838383838360009080519060200190620001359291906200032c565b5073__Utils_________________________________63d8916bb9846040518263ffffffff1660e01b81526004018082815260200191505060206040518083038186803b1580156200018657600080fd5b505af41580156200019b573d6000803e3d6000fd5b505050506040513d6020811015620001b257600080fd5b810190808051906020019092919050505060018190555073__Utils_________________________________63f0f316d3836040518263ffffffff1660e01b81526004018082815260200191505060206040518083038186803b1580156200021957600080fd5b505af41580156200022e573d6000803e3d6000fd5b505050506040513d60208110156200024557600080fd5b8101908080519060200190929190505050620002666200032260201b60201c565b0160028190555080600360006101000a81548173ffffffffffffffffffffffffffffffffffffffff021916908373ffffffffffffffffffffffffffffffffffffffff16021790555033600460006101000a81548173ffffffffffffffffffffffffffffffffffffffff021916908373ffffffffffffffffffffffffffffffffffffffff1602179055506000600760016101000a81548160ff021916908360038111156200030f57fe5b02179055505050505050505050620003db565b6000600854905090565b828054600181600116156101000203166002900490600052602060002090601f016020900481019282601f106200036f57805160ff1916838001178555620003a0565b82800160010185558215620003a0579182015b828111156200039f57825182559160200191906001019062000382565b5b509050620003af9190620003b3565b5090565b620003d891905b80821115620003d4576000816000905550600101620003ba565b5090565b90565b610e8a80620003eb6000396000f3fe6080604052600436106101095760003560e01c80638da5cb5b11610095578063d7bb99ba11610064578063d7bb99ba14610436578063e29eb83614610440578063e52253811461046b578063ec4cd0cf14610482578063fbe5d87e146104b157610109565b80638da5cb5b146102eb578063953b8fb814610342578063c19d93fb1461036d578063c5e57985146103a657610109565b80633ccfd60b116100dc5780633ccfd60b146101e257806355a3b2c1146101f957806368bc00411461025e57806384bcefd41461028d57806387351813146102bc57610109565b8063083dca111461010e57806322f8e5661461012557806329dcb0cf1461016057806338af3eed1461018b575b600080fd5b34801561011a57600080fd5b506101236104dc565b005b34801561013157600080fd5b5061015e6004803603602081101561014857600080fd5b81019080803590602001909291905050506106c3565b005b34801561016c57600080fd5b506101756106cd565b6040518082815260200191505060405180910390f35b34801561019757600080fd5b506101a06106d3565b604051808273ffffffffffffffffffffffffffffffffffffffff1673ffffffffffffffffffffffffffffffffffffffff16815260200191505060405180910390f35b3480156101ee57600080fd5b506101f76106f9565b005b34801561020557600080fd5b506102486004803603602081101561021c57600080fd5b81019080803573ffffffffffffffffffffffffffffffffffffffff16906020019092919050505061097d565b6040518082815260200191505060405180910390f35b34801561026a57600080fd5b50610273610995565b604051808215151515815260200191505060405180910390f35b34801561029957600080fd5b506102a26109a8565b604051808215151515815260200191505060405180910390f35b3480156102c857600080fd5b506102d16109bb565b604051808215151515815260200191505060405180910390f35b3480156102f757600080fd5b50610300610a1a565b604051808273ffffffffffffffffffffffffffffffffffffffff1673ffffffffffffffffffffffffffffffffffffffff16815260200191505060405180910390f35b34801561034e57600080fd5b50610357610a40565b6040518082815260200191505060405180910390f35b34801561037957600080fd5b50610382610a46565b6040518082600381111561039257fe5b60ff16815260200191505060405180910390f35b3480156103b257600080fd5b506103bb610a59565b6040518080602001828103825283818151815260200191508051906020019080838360005b838110156103fb5780820151818401526020810190506103e0565b50505050905090810190601f1680156104285780820380516001836020036101000a031916815260200191505b509250505060405180910390f35b61043e610af7565b005b34801561044c57600080fd5b50610455610c77565b6040518082815260200191505060405180910390f35b34801561047757600080fd5b50610480610c7d565b005b34801561048e57600080fd5b50610497610dc8565b604051808215151515815260200191505060405180910390f35b3480156104bd57600080fd5b506104c6610df7565b6040518082815260200191505060405180910390f35b60008060038111156104ea57fe5b600760019054906101000a900460ff16600381111561050557fe5b14610578576040517f08c379a000000000000000000000000000000000000000000000000000000000815260040180806020018281038252600d8152602001807f496e76616c69642053746174650000000000000000000000000000000000000081525060200191505060405180910390fd5b610580610995565b156105d6576040517f08c379a0000000000000000000000000000000000000000000000000000000008152600401808060200182810382526028815260200180610e2e6028913960400191505060405180910390fd5b600760009054906101000a900460ff16610613576001600760016101000a81548160ff0219169083600381111561060957fe5b0217905550610638565b6002600760016101000a81548160ff0219169083600381111561063257fe5b02179055505b7f6fa7e87ebbd87ed4f1c40bba63144f68fd2bb022fb748ab3b61b5411c39bd47430600554600760009054906101000a900460ff16604051808473ffffffffffffffffffffffffffffffffffffffff1673ffffffffffffffffffffffffffffffffffffffff16815260200183815260200182151515158152602001935050505060405180910390a150565b8060088190555050565b60025481565b600360009054906101000a900473ffffffffffffffffffffffffffffffffffffffff1681565b600180600381111561070757fe5b600760019054906101000a900460ff16600381111561072257fe5b14610795576040517f08c379a000000000000000000000000000000000000000000000000000000000815260040180806020018281038252600d8152602001807f496e76616c69642053746174650000000000000000000000000000000000000081525060200191505060405180910390fd5b6000600660003373ffffffffffffffffffffffffffffffffffffffff1673ffffffffffffffffffffffffffffffffffffffff168152602001908152602001600020541161084a576040517f08c379a00000000000000000000000000000000000000000000000000000000081526004018080602001828103825260178152602001807f4e6f7468696e672077617320436f6e747269627574656400000000000000000081525060200191505060405180910390fd5b6000600660003373ffffffffffffffffffffffffffffffffffffffff1673ffffffffffffffffffffffffffffffffffffffff1681526020019081526020016000205490506000600660003373ffffffffffffffffffffffffffffffffffffffff1673ffffffffffffffffffffffffffffffffffffffff168152602001908152602001600020819055506000600460009054906101000a900473ffffffffffffffffffffffffffffffffffffffff1690508073ffffffffffffffffffffffffffffffffffffffff166108fc839081150290604051600060405180830381858888f193505050506109785781600660003373ffffffffffffffffffffffffffffffffffffffff1673ffffffffffffffffffffffffffffffffffffffff168152602001908152602001600020819055505b505050565b60066020528060005260406000206000915090505481565b60006002546109a2610e01565b10905090565b600760009054906101000a900460ff1681565b60008060038111156109c957fe5b600760019054906101000a900460ff1660038111156109e457fe5b1480610a155750600260038111156109f857fe5b600760019054906101000a900460ff166003811115610a1357fe5b145b905090565b600460009054906101000a900473ffffffffffffffffffffffffffffffffffffffff1681565b60015481565b600760019054906101000a900460ff1681565b60008054600181600116156101000203166002900480601f016020809104026020016040519081016040528092919081815260200182805460018160011615610100020316600290048015610aef5780601f10610ac457610100808354040283529160200191610aef565b820191906000526020600020905b815481529060010190602001808311610ad257829003601f168201915b505050505081565b6000806003811115610b0557fe5b600760019054906101000a900460ff166003811115610b2057fe5b14610b93576040517f08c379a000000000000000000000000000000000000000000000000000000000815260040180806020018281038252600d8152602001807f496e76616c69642053746174650000000000000000000000000000000000000081525060200191505060405180910390fd5b610b9b610995565b610bf0576040517f08c379a0000000000000000000000000000000000000000000000000000000008152600401808060200182810382526022815260200180610e0c6022913960400191505060405180910390fd5b34600660003373ffffffffffffffffffffffffffffffffffffffff1673ffffffffffffffffffffffffffffffffffffffff168152602001908152602001600020600082825401925050819055503460056000828254019250508190555060015460055410610c74576001600760006101000a81548160ff0219169083151502179055505b50565b60055481565b6002806003811115610c8b57fe5b600760019054906101000a900460ff166003811115610ca657fe5b14610d19576040517f08c379a000000000000000000000000000000000000000000000000000000000815260040180806020018281038252600d8152602001807f496e76616c69642053746174650000000000000000000000000000000000000081525060200191505060405180910390fd5b600360009054906101000a900473ffffffffffffffffffffffffffffffffffffffff1673ffffffffffffffffffffffffffffffffffffffff166108fc6005549081150290604051600060405180830381858888f1935050505015610da0576003600760016101000a81548160ff02191690836003811115610d9657fe5b0217905550610dc5565b6001600760016101000a81548160ff02191690836003811115610dbf57fe5b02179055505b50565b6000600380811115610dd657fe5b600760019054906101000a900460ff166003811115610df157fe5b14905090565b6000600554905090565b600060085490509056fe446561646c696e65207061737365642e2043616e6e6f7420636f6e7472696275746543616e6e6f742066696e6973682063616d706169676e206265666f7265206120646561646c696e65a265627a7a7231582021ecdbb89fec4564405d96bc911f298c9dcd52b8ba02de3b7323fbeb3fa45c7664736f6c63430005100032",
  "source": "// SPDX-License-Identifier: MIT\npragma solidity >=0.4.22 <0.9.0;\n\nimport \"./CrowdFunding.sol\";\n\ncontract TestCrowdFunding is CrowdFunding {\n    uint time;\n    \n    constructor (\n        string memory contractName,\n        uint targetAmount,\n        uint durationInMin,\n        address payable beneficiaryAddress\n    )\n    CrowdFunding(contractName, targetAmount, durationInMin, beneficiaryAddress) public {\n\n    }\n\n    function currentTime() internal view returns(uint) {\n        return time;\n    }\n\n    function setCurrentTime(uint newTime) public {\n        time = newTime;\n    }\n\n}",
  "sourcePath": "/Users/administrator/Documents/Ethereum/CrowdFunding-Dapp/Crowdfunding-Eth-Dapp/Dapp/contracts/TestCrowdFunding.sol",
  "compiler": {
    "name": "solc",
    "version": "0.5.16+commit.9c3226ce.Emscripten.clang"
  },
  "schemaVersion": "3.4.3",
  "updatedAt": "2021-08-19T02:03:51.912Z",
  "devdoc": {
    "methods": {}
  },
  "userdoc": {
    "methods": {}
  }
}