{
  "contractName": "TestCrowdFunding",
  "abi": [
    {
      "inputs": [
        {
          "internalType": "string",
          "name": "contractName",
          "type": "string"
        },
        {
          "internalType": "uint256",
          "name": "targetAmount",
          "type": "uint256"
        },
        {
          "internalType": "uint256",
          "name": "durationInMin",
          "type": "uint256"
        },
        {
          "internalType": "address payable",
          "name": "beneficiaryAddress",
          "type": "address"
        }
      ],
      "payable": false,
      "stateMutability": "nonpayable",
      "type": "constructor"
    },
    {
      "constant": true,
      "inputs": [
        {
          "internalType": "address",
          "name": "",
          "type": "address"
        }
      ],
      "name": "amounts",
      "outputs": [
        {
          "internalType": "uint256",
          "name": "",
          "type": "uint256"
        }
      ],
      "payable": false,
      "stateMutability": "view",
      "type": "function"
    },
    {
      "constant": true,
      "inputs": [],
      "name": "beforeDeadline",
      "outputs": [
        {
          "internalType": "bool",
          "name": "",
          "type": "bool"
        }
      ],
      "payable": false,
      "stateMutability": "view",
      "type": "function"
    },
    {
      "constant": true,
      "inputs": [],
      "name": "beneficiary",
      "outputs": [
        {
          "internalType": "address payable",
          "name": "",
          "type": "address"
        }
      ],
      "payable": false,
      "stateMutability": "view",
      "type": "function"
    },
    {
      "constant": false,
      "inputs": [],
      "name": "collect",
      "outputs": [],
      "payable": false,
      "stateMutability": "nonpayable",
      "type": "function"
    },
    {
      "constant": true,
      "inputs": [],
      "name": "collected",
      "outputs": [
        {
          "internalType": "bool",
          "name": "",
          "type": "bool"
        }
      ],
      "payable": false,
      "stateMutability": "view",
      "type": "function"
    },
    {
      "constant": false,
      "inputs": [],
      "name": "contribute",
      "outputs": [],
      "payable": true,
      "stateMutability": "payable",
      "type": "function"
    },
    {
      "constant": true,
      "inputs": [],
      "name": "deadline",
      "outputs": [
        {
          "internalType": "uint256",
          "name": "",
          "type": "uint256"
        }
      ],
      "payable": false,
      "stateMutability": "view",
      "type": "function"
    },
    {
      "constant": true,
      "inputs": [],
      "name": "name",
      "outputs": [
        {
          "internalType": "string",
          "name": "",
          "type": "string"
        }
      ],
      "payable": false,
      "stateMutability": "view",
      "type": "function"
    },
    {
      "constant": true,
      "inputs": [],
      "name": "owner",
      "outputs": [
        {
          "internalType": "address",
          "name": "",
          "type": "address"
        }
      ],
      "payable": false,
      "stateMutability": "view",
      "type": "function"
    },
    {
      "constant": true,
      "inputs": [],
      "name": "state",
      "outputs": [
        {
          "internalType": "enum CrowdFunding.State",
          "name": "",
          "type": "uint8"
        }
      ],
      "payable": false,
      "stateMutability": "view",
      "type": "function"
    },
    {
      "constant": true,
      "inputs": [],
      "name": "targetAmount",
      "outputs": [
        {
          "internalType": "uint256",
          "name": "",
          "type": "uint256"
        }
      ],
      "payable": false,
      "stateMutability": "view",
      "type": "function"
    },
    {
      "constant": true,
      "inputs": [],
      "name": "totalCollected",
      "outputs": [
        {
          "internalType": "uint256",
          "name": "",
          "type": "uint256"
        }
      ],
      "payable": false,
      "stateMutability": "view",
      "type": "function"
    },
    {
      "constant": false,
      "inputs": [],
      "name": "withdraw",
      "outputs": [],
      "payable": false,
      "stateMutability": "nonpayable",
      "type": "function"
    },
    {
      "constant": false,
      "inputs": [
        {
          "internalType": "uint256",
          "name": "newTime",
          "type": "uint256"
        }
      ],
      "name": "setCurrentTime",
      "outputs": [],
      "payable": false,
      "stateMutability": "nonpayable",
      "type": "function"
    }
  ],
  "bytecode": "0x60806040523480156200001157600080fd5b5060405162000efc38038062000efc833981810160405260808110156200003757600080fd5b81019080805160405193929190846401000000008211156200005857600080fd5b838201915060208201858111156200006f57600080fd5b82518660018202830111640100000000821117156200008d57600080fd5b8083526020830192505050908051906020019080838360005b83811015620000c3578082015181840152602081019050620000a6565b50505050905090810190601f168015620000f15780820380516001836020036101000a031916815260200191505b50604052602001805190602001909291908051906020019092919080519060200190929190505050838383838360009080519060200190620001359291906200032c565b5073__Utils_________________________________63d8916bb9846040518263ffffffff1660e01b81526004018082815260200191505060206040518083038186803b1580156200018657600080fd5b505af41580156200019b573d6000803e3d6000fd5b505050506040513d6020811015620001b257600080fd5b810190808051906020019092919050505060018190555073__Utils_________________________________63f0f316d3836040518263ffffffff1660e01b81526004018082815260200191505060206040518083038186803b1580156200021957600080fd5b505af41580156200022e573d6000803e3d6000fd5b505050506040513d60208110156200024557600080fd5b8101908080519060200190929190505050620002666200032260201b60201c565b0160028190555080600360006101000a81548173ffffffffffffffffffffffffffffffffffffffff021916908373ffffffffffffffffffffffffffffffffffffffff16021790555033600460006101000a81548173ffffffffffffffffffffffffffffffffffffffff021916908373ffffffffffffffffffffffffffffffffffffffff1602179055506000600760016101000a81548160ff021916908360038111156200030f57fe5b02179055505050505050505050620003db565b6000600854905090565b828054600181600116156101000203166002900490600052602060002090601f016020900481019282601f106200036f57805160ff1916838001178555620003a0565b82800160010185558215620003a0579182015b828111156200039f57825182559160200191906001019062000382565b5b509050620003af9190620003b3565b5090565b620003d891905b80821115620003d4576000816000905550600101620003ba565b5090565b90565b610b1180620003eb6000396000f3fe6080604052600436106100dd5760003560e01c806384bcefd41161007f578063c19d93fb11610059578063c19d93fb1461038b578063d7bb99ba146103c4578063e29eb836146103ce578063e5225381146103f9576100dd565b806384bcefd4146102da5780638da5cb5b14610309578063953b8fb814610360576100dd565b806338af3eed116100bb57806338af3eed146101d85780633ccfd60b1461022f57806355a3b2c11461024657806368bc0041146102ab576100dd565b806306fdde03146100e257806322f8e5661461017257806329dcb0cf146101ad575b600080fd5b3480156100ee57600080fd5b506100f7610410565b6040518080602001828103825283818151815260200191508051906020019080838360005b8381101561013757808201518184015260208101905061011c565b50505050905090810190601f1680156101645780820380516001836020036101000a031916815260200191505b509250505060405180910390f35b34801561017e57600080fd5b506101ab6004803603602081101561019557600080fd5b81019080803590602001909291905050506104ae565b005b3480156101b957600080fd5b506101c26104b8565b6040518082815260200191505060405180910390f35b3480156101e457600080fd5b506101ed6104be565b604051808273ffffffffffffffffffffffffffffffffffffffff1673ffffffffffffffffffffffffffffffffffffffff16815260200191505060405180910390f35b34801561023b57600080fd5b506102446104e4565b005b34801561025257600080fd5b506102956004803603602081101561026957600080fd5b81019080803573ffffffffffffffffffffffffffffffffffffffff169060200190929190505050610762565b6040518082815260200191505060405180910390f35b3480156102b757600080fd5b506102c061077a565b604051808215151515815260200191505060405180910390f35b3480156102e657600080fd5b506102ef61078d565b604051808215151515815260200191505060405180910390f35b34801561031557600080fd5b5061031e6107a0565b604051808273ffffffffffffffffffffffffffffffffffffffff1673ffffffffffffffffffffffffffffffffffffffff16815260200191505060405180910390f35b34801561036c57600080fd5b506103756107c6565b6040518082815260200191505060405180910390f35b34801561039757600080fd5b506103a06107cc565b604051808260038111156103b057fe5b60ff16815260200191505060405180910390f35b6103cc6107df565b005b3480156103da57600080fd5b506103e361095f565b6040518082815260200191505060405180910390f35b34801561040557600080fd5b5061040e610965565b005b60008054600181600116156101000203166002900480601f0160208091040260200160405190810160405280929190818152602001828054600181600116156101000203166002900480156104a65780601f1061047b576101008083540402835291602001916104a6565b820191906000526020600020905b81548152906001019060200180831161048957829003601f168201915b505050505081565b8060088190555050565b60025481565b600360009054906101000a900473ffffffffffffffffffffffffffffffffffffffff1681565b60018060038111156104f257fe5b600760019054906101000a900460ff16600381111561050d57fe5b14610580576040517f08c379a000000000000000000000000000000000000000000000000000000000815260040180806020018281038252600d8152602001807f496e76616c69642053746174650000000000000000000000000000000000000081525060200191505060405180910390fd5b6000600660003373ffffffffffffffffffffffffffffffffffffffff1673ffffffffffffffffffffffffffffffffffffffff1681526020019081526020016000205411610635576040517f08c379a00000000000000000000000000000000000000000000000000000000081526004018080602001828103825260178152602001807f4e6f7468696e672077617320436f6e747269627574656400000000000000000081525060200191505060405180910390fd5b6000600660003373ffffffffffffffffffffffffffffffffffffffff1673ffffffffffffffffffffffffffffffffffffffff1681526020019081526020016000205490506000600660003373ffffffffffffffffffffffffffffffffffffffff1673ffffffffffffffffffffffffffffffffffffffff16815260200190815260200160002081905550600360009054906101000a900473ffffffffffffffffffffffffffffffffffffffff1673ffffffffffffffffffffffffffffffffffffffff166108fc829081150290604051600060405180830381858888f1935050505061075e5780600660003373ffffffffffffffffffffffffffffffffffffffff1673ffffffffffffffffffffffffffffffffffffffff168152602001908152602001600020819055505b5050565b60066020528060005260406000206000915090505481565b6000600254610787610ab0565b10905090565b600760009054906101000a900460ff1681565b600460009054906101000a900473ffffffffffffffffffffffffffffffffffffffff1681565b60015481565b600760019054906101000a900460ff1681565b60008060038111156107ed57fe5b600760019054906101000a900460ff16600381111561080857fe5b1461087b576040517f08c379a000000000000000000000000000000000000000000000000000000000815260040180806020018281038252600d8152602001807f496e76616c69642053746174650000000000000000000000000000000000000081525060200191505060405180910390fd5b61088361077a565b6108d8576040517f08c379a0000000000000000000000000000000000000000000000000000000008152600401808060200182810382526022815260200180610abb6022913960400191505060405180910390fd5b34600660003373ffffffffffffffffffffffffffffffffffffffff1673ffffffffffffffffffffffffffffffffffffffff16815260200190815260200160002060008282540192505081905550346005600082825401925050819055506001546005541061095c576001600760006101000a81548160ff0219169083151502179055505b50565b60055481565b600280600381111561097357fe5b600760019054906101000a900460ff16600381111561098e57fe5b14610a01576040517f08c379a000000000000000000000000000000000000000000000000000000000815260040180806020018281038252600d8152602001807f496e76616c69642053746174650000000000000000000000000000000000000081525060200191505060405180910390fd5b600360009054906101000a900473ffffffffffffffffffffffffffffffffffffffff1673ffffffffffffffffffffffffffffffffffffffff166108fc6005549081150290604051600060405180830381858888f1935050505015610a88576003600760016101000a81548160ff02191690836003811115610a7e57fe5b0217905550610aad565b6001600760016101000a81548160ff02191690836003811115610aa757fe5b02179055505b50565b600060085490509056fe446561646c696e65207061737365642e2043616e6e6f7420636f6e74726962757465a265627a7a72315820ddd21deee8f78929e5d61f0857bf5ed363b11245d9e36f0a283676e6a9a7e85464736f6c63430005100032",
  "source": "// SPDX-License-Identifier: MIT\npragma solidity >=0.4.22 <0.9.0;\n\nimport \"./CrowdFunding.sol\";\n\ncontract TestCrowdFunding is CrowdFunding {\n    uint time;\n    \n    constructor (\n        string memory contractName,\n        uint targetAmount,\n        uint durationInMin,\n        address payable beneficiaryAddress\n    )\n    CrowdFunding(contractName, targetAmount, durationInMin, beneficiaryAddress) public {\n\n    }\n\n    function currentTime() internal view returns(uint) {\n        return time;\n    }\n\n    function setCurrentTime(uint newTime) public {\n        time = newTime;\n    }\n\n}",
  "sourcePath": "/Users/administrator/Documents/Ethereum/CrowdFunding-Dapp/Crowdfunding-Eth-Dapp/Dapp/contracts/TestCrowdFunding.sol",
  "compiler": {
    "name": "solc",
    "version": "0.5.16+commit.9c3226ce.Emscripten.clang"
  },
  "schemaVersion": "3.4.3",
  "updatedAt": "2021-08-15T22:07:27.559Z",
  "devdoc": {
    "methods": {}
  },
  "userdoc": {
    "methods": {}
  }
}