{
  "contractName": "Utils",
  "abi": [
    {
      "constant": true,
      "inputs": [
        {
          "internalType": "uint256",
          "name": "ethSum",
          "type": "uint256"
        }
      ],
      "name": "etherToWei",
      "outputs": [
        {
          "internalType": "uint256",
          "name": "",
          "type": "uint256"
        }
      ],
      "payable": false,
      "stateMutability": "pure",
      "type": "function"
    },
    {
      "constant": true,
      "inputs": [
        {
          "internalType": "uint256",
          "name": "timeInMins",
          "type": "uint256"
        }
      ],
      "name": "minsToSecs",
      "outputs": [
        {
          "internalType": "uint256",
          "name": "",
          "type": "uint256"
        }
      ],
      "payable": false,
      "stateMutability": "pure",
      "type": "function"
    }
  ],
  "bytecode": "0x610116610026600b82828239805160001a60731461001957fe5b30600052607381538281f3fe7300000000000000000000000000000000000000003014608060405260043610603d5760003560e01c8063d8916bb9146042578063f0f316d3146081575b600080fd5b606b60048036036020811015605657600080fd5b810190808035906020019092919050505060c0565b6040518082815260200191505060405180910390f35b60aa60048036036020811015609557600080fd5b810190808035906020019092919050505060d4565b6040518082815260200191505060405180910390f35b6000670de0b6b3a764000082029050919050565b6000603c8202905091905056fea265627a7a723158207c7bc0c569c7cb5d20a9f9f47758d68529e2288bc4560a0d4dc2a2b5c36b34e764736f6c63430005100032",
  "source": "// SPDX-License-Identifier: MIT\npragma solidity >=0.4.22 <0.9.0;\n\nlibrary Utils {\n    function etherToWei(uint ethSum) public pure returns(uint) {\n        return ethSum * 1 ether;\n    }\n\n    function minsToSecs(uint timeInMins) public pure returns(uint) {\n        return timeInMins * 1 minutes;\n    }\n}",
  "sourcePath": "/Users/administrator/Documents/Ethereum/CrowdFunding-Dapp/Crowdfunding-Eth-Dapp/Dapp/contracts/Utils.sol",
  "compiler": {
    "name": "solc",
    "version": "0.5.16+commit.9c3226ce.Emscripten.clang"
  },
  "schemaVersion": "3.4.3",
  "updatedAt": "2021-08-15T23:04:17.727Z",
  "networkType": "ethereum",
  "devdoc": {
    "methods": {}
  },
  "userdoc": {
    "methods": {}
  }
}